:03000000020ECC21
:0C0ECC00787FE4F6D8FD758114020EBC9E
:1008000000E0F0F8FCFEFFFEFFFFFFFFFFFFFFFF31
:10081000FFFFFFFEFEFDFEFCF8F0E0E08080000040
:100820000000000000000000000000000000109C1C
:10083000160B103001000000000000000000000056
:10084000000000000000000C01010000000000009A
:100850000000000000000000008000001400000202
:100860000100000000000000000000000000000087
:100870000000000000000000000000000000000078
:10088000053FFFFFFFFF3F1F1F1F1F07070F0F0F32
:100890001F3F2F0F0F1F1F1FBF7F7FFFFFFF78001E
:1008A00000000000000000000000000080007883CD
:1008B00060000000000000000000000000000000D8
:1008C000000804000000000000808080808000009C
:1008D0008000003010080402010000000000000049
:1008E0000000000000000000000000000000000008
:1008F00000000000000000000000000000000000F8
:10090000000001030F030004060F0F0F0E0E0C0C66
:100910000800002070301838197878FF13010002A1
:10092000000000000000000000000000000000C007
:10093000F0F8F8FCFCFCFEFCFCFCFCF8F8F0C00055
:100940000000000000C0FE7F7F37C7070707070FC2
:100950007F1C0000000000000080C0C0C0C0E0C0DC
:10096000C0C080000000000000000080C0E0F0F087
:10097000F8F8FCFCFCF4F0E0C0E0008000000000AF
:1009800000000000008080000000407030701011F6
:1009900018181038F8F0E0E0C06000010000000016
:1009A0000000000000040080808000000000C07F84
:1009B0000F7B3121018101010143030307FF3FC088
:1009C000C0C0C0C0F0F107346C44442808100001D6
:1009D0000000000000000000FFFFFF3F27C7C78F97
:1009E0000F7FFFFF3C0000000000FFBFFFFFFF7F05
:1009F0007F1DC90111030303030307078EDE0400F3
:100A0000ECD090E0E2E4C993E7EF9E3C327AF9F053
:100A1000E0F0F2FEFFFFFFFFF8F0E00000000080D2
:100A2000F8FCF03C3E3EA080F1F1C0C0E0E0F1FEF9
:100A3000E0C09810020000008080C0E0F8F2FFFFE4
:100A4000FFFFFFFFFFFDF0F0F0F0FEFFFFFFFFFEF6
:100A5000FCF8F0F0800000003D7DEDE8E8F9E0F002
:100A6000602007040000000000073FFEF7E3F76D79
:100A70006E030000000000000000000000040400FD
:100A8000FFFFFFFFFFFFFFFFFFDFEDBFFBEFFFFFFC
:100A9000FBD19CFFFFFFFFFFFFFFFFFFE0E0F0FD4A
:100AA000FCFFFFFFFFFFFFFFFFFFFFFFFFFFFFFF59
:100AB000F1C18303060687C3FBFFFFFFFFFFFFFFB4
:100AC000FFFFF7FFFFFFFFFFFFFFFFFFFFFFBF7FFE
:100AD0007FFFFFFFFF380C00000807030301000041
:100AE000000000408080000000000081871FFFEFB1
:100AF00060604000002100000080402000000000F5
:100B0000FFFFFFFFFFFFFFFFFFFFFFFFFFFFFFFFF5
:100B1000FFFFFFFFF7F7FFFFFFFFFFFFFFFFFFFFF5
:100B2000FFFFFFFFFF7F7F7FFFFFFFFFFFFFFFFF55
:100B3000FFFFFFFFFEFFFFFFFFFFFFFFFFFFFFFFC6
:100B4000FFFFFFF377E78F0F1FFFFFFFFFFEFDFDA6
:100B5000FDFEFF3F03000000000000000000000059
:100B600094FEFE3F0FC1F8FCCE07030100FCFF7F9F
:100B70007F3F9E8CE4F4F8FCFEFEFFFFFFFF7F3E0C
:100B8000FFFFFFFFFFFF7FFFFFFFFF9FFFFFFFFF55
:100B9000FFFFFFFFFFFFFFFF9FFFFFFFFFFFFFFFC5
:100BA000FFFFFFFFFFFFFEFFFFFFFFFFFFFFFFFF56
:100BB000FFFFFFFFFFFFFFFFFFFFFFFFFFFFFFFF45
:100BC000FFFFFFFFFEFEFEFFFEFFFFFFFFFF0F0721
:100BD000070130000000000000000000000000C01D
:100BE000070F1002FE7F030100008000C0230926CA
:100BF00010EAFFFFFFFFFFFFFF3F0F0701000000AC
:100E6200E4FDFCC3ED9FEC9E5015E4FBFA0BBB00C6
:0F0E7200010ABA04F8BBFBF50DBD00010C80E4CA
:010E8100224E
:100E8200D2B3D2B2C2B67F3F120E9C7F40120E9CEA
:0A0E92007FB8120E9C7FC0020E9C78
:100E9C00C2B58FA0D2B17F0A7E00120E62C2B122FF
:100EAC00D2B58FA0D2B17F017E00120E62C2B122E8
:060DB4008B088A09890A80
:100DBA00E4F50EF50DF50C750B3FF513F514D2B3EA
:100DCA00C2B2F50FF510E4F511F512E5122514FF7C
:100DDA00E5113513AB08AA09A90A8F82F583120D0A
:100DEA0079FF120EAC0512E51270020511C3944088
:100DFA00E5116480948040D3B2B3B2B2E4FFFE7DC1
:100E0A00387C43AB0EAA0DA90CA80B120C07120CC6
:100E1A00F8120E9CAF0EAE0DAD0CAC0BE4FBFAF95A
:100E2A00783F120C078F0E8E0D8D0C8C0B7440259B
:100E3A0014F514E43513F5130510E5107002050FC7
:100E4A00C39410E50F648094805003020DD07F4054
:080E5A00120E9C7FB8020E9CF1
:100EBC00D2B4120E827BFF7A087900120DB480F541
:100C0000020D64E86480F8E933E83360110460F0B1
:100C1000ED33EC337009E8FCE9FDEAFEEBFF22045A
:100C200060DED3EB9FEA9EE99DE8C2E78CF0C2F755
:100C300095F0400CE8CCF8E9CDF9EACEFAEBCFFB21
:100C4000120D2F85D0F05804700320D5B3E804703E
:100C5000075002B2D5020D6E92D5EC0460F7E4CCD9
:100C6000C0E0C398F8603B94186008400DD0E0FBEA
:100C7000020D46E4FBFAC9FC8028E830E406E4C92A
:100C8000FBE4CAFCE830E305E4C9CACBFCE854073E
:100C90006010F8C3E913F9EA13FAEB13FBEC13FC49
:100CA000D8F130F52FC3E49CFCEF9BFFEE9AFEEDEC
:100CB00099FDD0E0FBEF4E4D4C701222DB03020D8C
:100CC0006BEC2CFCEF33FFEE33FEED33FDED30E744
:100CD000EB020D46EF2BFFEE3AFEED39FDD0E0FBC7
:100CE00050130BBB0003020D6EED13FDEE13FEEF70
:080CF00013FFEC13FC020D469A
:100CF800EDD2E7CD33EC3392D524814006E4FFFEF4
:100D0800FDFC22FCE4CFCECDCC24E0501174FF8052
:100D1800EDC3CC13CCCD13CDCE13CECF13CF0470EF
:070D2800F030D5DE020DA63C
:100D2F00E9D2E7C933E833F892D5EDD2E7CD33EC0A
:070D3F0033FC5002B2D52283
:100D4600EC30E7100FBF000C0EBE00080DBD00040E
:100D56000BEB6014A2D5EB13FCED92E7FD2274FFBA
:100D6600FCFDFEFF22E480F8A2D574FF13FC7D8013
:030D7600E480EF27
:100D7900BB010CE58229F582E5833AF583E022502F
:100D890006E92582F8E622BBFE06E92582F8E22279
:0D0D9900E58229F582E5833AF583E4932293
:0E0DA600C3E49FFFE49EFEE49DFDE49CFC225E
:00000001FF
